:020000040800F2
:10000000000C00208D480008ED350008EF35000891
:1000100000000000000000000000000000000000E0
:10002000000000000000000000000000F53500089E
:100030000000000000000000F7350008F935000856
:10004000000000000000000000000000DD48000883
:10005000DD480008DD4800080936000821360008A0
:100060000000000000000000000000000000000090
:10007000DD480008DD4800082336000800000000C5
:1000800000000000DD480008000000000000000043
:10009000000000002B36000800000000DD480008CA
:1000A00000000000DD48000800000000D136000814
:1000B0000000000000000000000000000000000040
:1000C000002370B5084D6C68AA680134834200D3E0
:1000D00070BDA9688A4203D39B185B1A0A00F5E732
:1000E000661AF318D318F9E710E000E03F21084B37
:1000F0001A7801320A405978914204D15A88013263
:1001000092B25A8070471978591808711A70F9E735
:10011000A40200200C4B82B01A0044321278002A4C
:1001200010D00A4A11680091009909070AD0526854
:1001300088330192009A019A00221A60044AD36817
:100140000133D36002B07047A402002000380140A0
:10015000240300200A4B10B544331B78002B06D033
:10016000FFF7D8FF2024074B1A68224200D110BDA8
:100170005868C0B2FFF7BAFFFFF7CCFFF3E7C046FD
:10018000A4020020003801400022074B1A825A8244
:10019000E1229200801801221A765A76DA695861B3
:1001A0000132DA617047C046240300208A420ED231
:1001B00018214A4380184269534382689B18C268D9
:1001C000934203DB02699A4200DD1A0082607047A5
:1001D00070B5204B04005A1DD17F1E6A1E4A0029AB
:1001E00009D111881D48814200D11D49012051804B
:1001F000591D9E62C877986AC8235588301A9B009B
:10020000984215D39621174BC900C01804F0C8F9BD
:10021000062104F04BFA04230A009A4306D002296F
:1002200001D0052904D1FA25ED0001E0FA25AD0041
:100230000023A3710C4B300025806580A580A3604E
:10024000E6602661142104F0ABF980235B00606155
:10025000238370BD2403002000000020FFFF000066
:10026000DC050000E0FCFFFF204E00007F23314949
:1002700070B58B75304B00221D002E352A701D0085
:1002800034352A701D001E0038352A701D0048368E
:10029000327001201E0040352A70284D284CAD6870
:1002A00040428D611D1DEA87264D49368880C880F1
:1002B00088608881C88108824C828C82C8759A8542
:1002C0001A63DA8658879887DA8788830880CD830F
:1002D0005A6432700C850C002A340884488488845F
:1002E000C88420701800503002701800513002701D
:1002F00018005230027018005330027018001E00AF
:100300005430027018004A3632701E0055300270A8
:100310000D484C368885180032801E00603002700F
:10032000186A4E369A65DA659862053332804D80D8
:10033000DA7770BD0000002024030020B001002007
:10034000FF7F0000DC05000008080000FA2302001F
:100350005B0001209A4204D302489042804140420F
:1003600040007047C4090000FA22030010B5FA20CB
:100370005200934213D9124A93421ED8AF22114918
:10038000D2008B420CD8F53BFF3B18005043F539A7
:10039000F530FF30FF3904F003F9FA3080B210BDB8
:1003A00009495B18FA215343F533FF3318008900DC
:1003B00004F0F6F8054BC018F0E70548EFE7C04633
:1003C000C3090000DC05000024FAFFFF72060000EC
:1003D000EA0B0000044B002219001A632E3134335B
:1003E0000A701A707047C04624030020FA21074B98
:1003F00010B5186A490004F059F9A0232022DB0542
:10040000272901D99A6110BD9A62FCE724030020D4
:10041000F7B502244B4B4C491A6A01920A692242F1
:1004200025D01E000A696836A2430A614D6B5A6ED8
:10043000370001325A663278ADB2002A18D11A005C
:1004400069321278002A05D01A006A321288AA1A74
:1004500092B2DA661A0018006A32158001226833F7
:10046000693002701A7002230A6A13430B62F7BDE7
:100470001A0000266A3212883E70B4460E6A90B2A4
:10048000AA1AA64392B20E62110096242D39FF39A2
:1004900089B22401A142EAD8D96E8A42E7D2FA2170
:1004A000DC6E49008C42E2D3D96E284EB142DED8D0
:1004B0001900274C7031E2850978614516D0218EEC
:1004C0008C4689B2624536D3511A89B208290DD9B2
:1004D000190071310978002912D0618E8C4689B2D9
:1004E00062452BD3551AADB2082D09D8A18E8A4288
:1004F00000D2A286190072310888824200D90A808F
:10050000D86E14498842B2D9D96EB142AFD8190019
:100510000020713122866286087019000130703126
:10052000087019007231A2860A80019A5A679A6F80
:1005300012189A679BE74118491BC6E74018451BEC
:10054000D1E7C04624030020002C01403075000094
:1005500000000020B70B0000F7B572B6154B1E8ED9
:10056000DD8D5C8E144BB6B21A0071321178DA6EE2
:100570005F6F94465A6E703300929A68ADB20192E2
:10058000A022D20512691B78A4B2C9B2DBB262B64E
:10059000817161461207D20F02765A1E9341816023
:1005A00000990680016101994580C760848041619E
:1005B0004376FEBD0000002024030020F0B595B076
:1005C00009931AAB029200229B5E7C4D0A931BABEF
:1005D00000241C5F1CAB1B7808900393EB6F0DA8E5
:1005E0005A1C0233079204932F6A0B91FFF7B4FF52
:1005F0008022EB6D1202934200DBD5E0704A01923B
:10060000934201DB1BB2019301230693002C04DC0F
:1006100023005A1E93415B4206936A4B0125002238
:100620009B5E002B02DC5A1E93415D42634BDA69EC
:10063000187E0592634A5E7E059953688B4202D10B
:10064000002E00D1B6E000235F499360013B9C4639
:10065000CB8600231380634638310B70059B5360B3
:100660000023984207D055494B69FA1A0123002A02
:1006700001DD00230B760121002E32D151480121EA
:100680008268BA1A132A2CD84F4A029ED28EB242DE
:1006900027D1069AAA4224D1E217A5185540002175
:1006A000425EADB290B2002A00DB7FE0A021081AC2
:1006B00000B20121854214DAD11752184A4092B291
:1006C000A0B2002C00DB73E0A021081A00B20121C7
:1006D000824206DA3C4A38321178039A891A4A1E55
:1006E0009141384A07981600D06050630898176106
:1006F00090820DA845883036D5820F9DADB2158306
:100700008588D58585791000323005700B98508327
:10071000029890830998D0830A9810840198548491
:1007200090842648050038352D78844635701600AB
:1007300003983136307004985063D06002006046F0
:10074000C267002B2ED000292CD01421028A1F4B07
:100750005143CF505B180899013299800299D98092
:10076000099919810A99598101999C81D981039923
:100770001D74597493B2222B00D900230F4A13829F
:10078000538A222B03D8538A01339BB253820D49DB
:100790000D4B02988F600C800399D88638331970FE
:1007A0000023537615B0F0BD094B2CE7A0307FE74E
:1007B000A0308BE7031E00D160E754E7240300203C
:1007C0000080FFFFA4030020000000206C04002034
:1007D000FF7F000072B60A4B002219003A311A87D7
:1007E0000A709A8762B6A023DB0502329A6202324F
:1007F0009A623C329A62034B3F3A9A627047C04613
:10080000A4030020000400500123F0B500220124BD
:100810008027104D5B427C2191420FD897420DD921
:1008200074391E005B08264000D06B400139002956
:10083000F7D10132802AEED1D843F0BD815C4B4024
:1008400008211E005B08264000D06B4001390029BA
:10085000F7D1EEE72083B8EDFA2170B5124D040010
:100860008900E86B03F09CFE802301385B0498420A
:1008700001D3012070BD0D490D4A4860C020136AA4
:1008800000061B021B0A0343136200200723886033
:100890000B60032CEDD8136AA1071B021B0A0B4344
:1008A00013622C64E6E7C0460000002010E000E080
:1008B00000ED00E030B587B001AC2200134B23CB34
:1008C00023C203CB03C2124A3823916808001840A0
:1008D00019420ED1072511685368C90A5B0B2940DC
:1008E0002B40042B00D903009B00E058C84007B000
:1008F00030BD91681940082906D090681840183812
:1009000043425841C003F2E70248F0E7E0480008DC
:100910000010024000366E01064B074A9B685B04DC
:100920005B0F9B00D3181F225B691340034AD06BF7
:10093000D840704700100240E04800080000002046
:10094000494AF0B58218541EA241002385B00132F5
:1009500000910392009A12681400DC4001D105B0A6
:10096000F0BD01249C40019401991440A4460A4220
:1009700077D0009A102452681500A5430295022DE5
:100980000ED107250F271D40AD00AF40DC08A400A5
:100990000419266A0099BE430F69AF403E432662A0
:1009A000032426005D00AE4001681440B143AC4012
:1009B000F7430E002643029C0660013C012C0ED832
:1009C00000998668CC683E40AC4034438460D406CD
:1009D000E40F9C40466801998E4334434460C468E8
:1009E00000993C408F68AF402743C760D10038D59D
:1009F00003260F251D499C081E40A400F600B540A3
:100A00006418A021276EC905AF430025884200D095
:100A1000039DB540614666462F432766144CCD437F
:100A2000E76F3E43D10301D43E002E406746E667A0
:100A3000104EF46F2743910301D42C402700F76731
:100A400066460A4C27683E43D10201D43E002E4040
:100A50006746266066683743920201D42E4037000D
:100A60006760013376E7C04600FCFFAF0018024024
:100A7000041802400818024030B587B0082200214F
:100A800004A802F0D1FE0123A0242025094AE40590
:100A9000516B200019435163526B01A91A40009217
:100AA0000293DB18009A01950393FFF749FFA561B4
:100AB00007B030BD0010024010B5FFF78BFEFFF706
:100AC000DBFFA0232022DB059A62FEE7F7B5704C1E
:100AD0000423256CAA68110019401A4200D072E064
:100AE00022006C321378012B00D16CE001230191BC
:100AF0001370AA681A425BD0236F664A1A4080239B
:100B00005B0013432200236700236C32636713707A
:100B10001C332B60AA68183B1343AB60636D082B32
:100B200064D1FA275C4ABF00166A18002968084099
:100B30000B425DD08023216F9B000B432367C023B2
:100B4000E9681B01194214D1230040335B7E002B5E
:100B50000FD12B681B070CD5AB685B0753D40C2156
:100B60006B688B436B60236F4C49194001230B4327
:100B70002367230040331B7E002B01D10C332B60F5
:100B8000210001236C310B700421286CAE6880B207
:100B90000E4241D10121AB680B4259D1236F3F4A2C
:100BA0001A4001231343236700236C342370FEBDD6
:100BB000A9683B4A114208D01022216F0A432267DC
:100BC000626F13436367FFF777FFAA6835491343E2
:100BD000AB60354BD86B03F0E3FC0190019B002B1D
:100BE00000D189E7019B013B0193F7E70C2398E7CC
:100BF000116A891BB94298D90423226F6C341343BC
:100C000063602070DFE72023216F0B4323670123FC
:100C1000616F0B436367ACE7AE680E4206D0A9680C
:100C2000194203D01023A9680B43AB600421166A54
:100C3000AB680B42AED0136A9B1B022BF8D9102372
:100C4000226F134323670123626F13436367ABE78C
:100C50000523AE683340012B12D1A9689943A960DE
:100C600002212960166AA968194297D0116A891B66
:100C70000229F8D91022216F0A432267626FE4E744
:100C80001023226F13432367636F194361678BE758
:100C9000A4030020FEF0FFFF24030020FEFEFFFF60
:100CA0001500008040420F000000002030B589B0E0
:100CB00004000D001422002103A802F0B5FDA023BA
:100CC000DB059C4214D10120164A516B014351634C
:100CD000536B03400293029B01232000049303A95A
:100CE000DB18039505930693FFF72AFE09B030BD84
:100CF0000D4B9C4209D102200A4A516B01435163BA
:100D0000536B03400193019BE6E7084B9C42E3D100
:100D10002020044A516B01435163536B03400093FD
:100D2000009BD9E70010024000040050001400505E
:100D3000114B70B59C6C114E25680540A84201D13D
:100D4000002017E0356A6D1AAA42F5D2E2680C4914
:100D500003200A40E2606269A331FF318A4319002F
:100D60006261202285310A70190086310A700022E2
:100D700084331A7070BDC046A402002024030020F2
:100D80005FFEFFFF0023F0B5364C85B003932300D0
:100D90006C331A780500A66E0220012A2FD0013884
:100DA0001870236C04229F6839001140019117428A
:100DB00052D12F682C493A008C466968B8400B3AEA
:100DC000614538D0996A08438021986249058E426E
:100DD0000FD0013E062E0CD90720A9685D69054099
:100DE000A94206D05D69014085435D615D69294383
:100DF0005961012A05D9002000236C34237005B005
:100E0000F0BD1A4A802113680B2F12D0C9030B437F
:100E100013600B2FEFD1164B1649D86B03F0C0FBB4
:100E20000A2343430393039B002BE4D0039B013B22
:100E3000F8E70904EBE79D6A85439D62012ADAD849
:100E400053425A4152420948920D93050A4A056895
:100E50009B182B400360CEE72023226F13432367A8
:100E6000CAE7C046A4030020011000000827014083
:100E70000000002040420F00FFFFBFFF1FB500230E
:100E800003930E4B04000293042301A80193FFF780
:100E900079FF002801D0FFF70FFE0C2301A8019372
:100EA000FFF770FF0028F6D1802301A85B010293B1
:100EB0000194FFF767FF0028EDD11FBD011000006E
:100EC000F7B51D4B48331B8801936B469C88019BEB
:100ED000202B00D92024A3B2002B00D1012400270D
:100EE0003E000420154DFFF7C9FFA4B20097FFF79D
:100EF000EDFD82B2031CAA4200D92B1C00999DB2C1
:100F0000031C8A4201D26B461B889BB201370093B7
:100F10003618BC42EBD8019B032B04D9009B023C42
:100F2000ED18761BA4B23000210003F039FB044B0E
:100F300080B278331880FEBD28070020FFFF000034
:100F4000A4030020F0B5002589B01F000EAB1600E9
:100F500000229B5E059006910793FFF73BFC114C26
:100F6000E565E586A585FFF735FA220001233832CD
:100F70001370220055321370230050331D7023006C
:100F800051331D700223543425700293079B3200A5
:100F9000009306993B0005980195FFF70FFB09B0F8
:100FA000F0BDC04624030020F7B5304C05002300F7
:100FB00085331B781700202B3FD100283DD080229D
:100FC000236D5201934204D1A26D002A01D1C207C0
:100FD00033D4220020004832019284300678012E5A
:100FE0002BD00126067020000026883006602000E5
:100FF0008530020021201070019A1D481186006A78
:101000005186802200905201934204D1A36DB342D5
:1010100001D12E001D00230048335B8E3A00009959
:10102000002B0BD14020FFF783FE002805D12300C1
:101030002022853384341A702070F7BD8020FFF79A
:1010400077FE0028F9D1A26C002D0BD1338802362F
:10105000DB05DB0D536022004832538E013B9BB20F
:101060005386D8E72B7801355360F4E7A4020020BB
:1010700024030020F0B5002715001E008BB010AB34
:1010800000229B5E0590079311AB1B780691089395
:1010900012AB1B780993FFF79DFB0A4CA785FFF75E
:1010A00099F9089B38342370099B2A000293079B07
:1010B00006990093059833000197FFF77FFA0BB06C
:1010C000F0BDC04624030020F0B5C94BA9B07A3367
:1010D0001B781193002B00D109E10422C54B1B9210
:1010E0001B6AC54A12689A4200D100E121AC200077
:1010F000FFF732FAA0230122DB059A61BC4B7B3358
:101100001B78002B02D02000FFF762F80022637EDC
:101110000992934209D00021B64BE2681B6A9B1AE0
:10112000B64AD28E9A4249410991B54B9C6BB54B58
:10113000A4B2DA6C196D10928A4202DB596D8A42B0
:1011400002DDD022520010921A00943212680F92DF
:101150001A00983212680F99914204DB1A009C32EF
:101160001268914201DD03220F92DB6F0B93802303
:101170000B9A5B029A4201D378220B92A24AD16D5C
:101180001291994201D303211291526C16929A4204
:1011900001D3A02316939C4B5A6F0E9280220E9976
:1011A0005202914202D39B2189000E918C331B681D
:1011B0000C93934201D320230C93934BA4331B68CD
:1011C00019938023199A5B029A4201D344221992FF
:1011D0008E4AD16B1791994201D310211791526D0C
:1011E0000D929A4201D31C230D93884BDA6E18920C
:1011F000802218995202914201D3102118919C33F8
:101200001B681A93934201D3814B1A937F4B083387
:10121000DB6F13938023139A5B029A4201D3E0237E
:101220001393744B55331B78062B62D1FFF74EFC9A
:101230006F4B0690783318806D4B7C331B88A3422C
:1012400012D072B6734B211C9C4256D9191C89B21C
:10125000714803F0A5F90022704B80B29885644B69
:101260009A8762B67C331C80069B6D4A1F3B9BB2FB
:101270000024604D934245D9FFF7ACFAAC85FFF7E7
:10128000A9F82B0040331C702B0049331C7001233C
:101290005B426B87AB872B0053331C702B0054339E
:1012A0001C702B0055331C702A002B005232603307
:1012B0001C701378EC86EC87052B05D80133DBB264
:1012C00013700122062B00D1082238352A704A4BB0
:1012D0001A6801321A601B9A013AD2B21B921B990A
:1012E000444A002901D000F009FD126A1A6029B0B1
:1012F000F0BDFFF7E5FD06909EE7A3B2642BA6D2F2
:101300006421A4E72B0052331C70069B1C012B00A8
:1013100060331A78002A41D10699EA65394AAC65EA
:10132000918501221A700F22324DAB6D1F11EB6DAA
:10133000BFB20793DB171340079A9B181B11EB866C
:101340002B1DDF872B00012249331A702D4B5A8C3D
:10135000BA4200D95F842B004C331A88BA4200D2BB
:101360001F80099B21AC002B61D1FFF733FA099B49
:10137000AB85FFF72FF8099B2269EB86002A00D086
:1013800003232A00383213702A00002353321370CB
:101390002A005535543213702B7098E7EB6DAA6D07
:1013A00004939F182C22AB5EE41B002B0BD1553508
:1013B0002B78023B032B06D9E217A31803210C2636
:1013C0005340802B01DD02210726200003F072F933
:1013D000084DC71931002000AF6503F06BF9049B7D
:1013E000C01880239B0098421CDDEB659BE7C0463C
:1013F000A403002024030020240400202807002048
:10140000B00100200000002080000020000100202A
:10141000A2030000204E000040420F008001002087
:10142000C10F0000394B9842DFDBE8657BE7384BA2
:1014300025881900483108786269364C00284DD15A
:101440005A640123E5830B702800FEF78DFF030328
:10145000181A314B3149C01803F0A2F880235B0100
:10146000984200D32E482B4A84B213882D4800217D
:10147000834203D0AB4246D2EB1A99B2908B294BF0
:10148000984253D15022224B4A331A70214B9C85EB
:10149000244B984203D01E4B186AFEF775FE1C4B76
:1014A00002211A00553211700122A74201D3BC4219
:1014B0009241190050310A70190051310A70190017
:1014C00000224E310A80190054331A70164B5331E2
:1014D0007E331A70119B0A7008933EE0596C8A4261
:1014E00001D1E58BB0E728005A64FEF72FFF0028F2
:1014F00001D0E583A8E7E38B9D4200D800D0E583C7
:10150000044BDD8BA0E75B1BB7E7C04600FEFFFF87
:10151000240300200000002072060000E40C0000FC
:10152000FF0F0000FFFF0000A4030020221AA042CA
:1015300000D3021BC34B92B2002900D0D0E103318B
:101540009142894149420C2A00D8CBE150224A33CA
:101550001A7000230893994298D1BB4B9C831D803D
:101560009B8D0593DB1B99B21EB204911B0403D51E
:10157000059BFB1A9BB204936B469C8B079B002B2D
:1015800001DA6442A4B2AF4B1A005032127852B260
:10159000002A00DCADE1059A974206D94E33BA1A0B
:1015A000198892B2914200D21A80FA21A74B890081
:1015B0001A6D92B2131C8A4200D90B1C9BB20A937B
:1015C000A04B1A005132127852B2002A08D10132CF
:1015D000002E03DC3200511E8A41524251331A70F0
:1015E000984B51331B785BB2002B00DC8FE1F30F7B
:1015F00014936B461B8E1F93002E00DC8FE1079A1D
:101600000C9901238A4200DC0023159358226B4673
:101610009B181B8804321D936B469B181B88043251
:1016200017936B469B8E12980C936B469B181B88E6
:1016300003216043169302F0B3FF1D9B18186B46FD
:101640001A8F80B2824200D9021C93B20E930323F8
:10165000179A5343169AD3189BB21893002E00DCA6
:101660006AE10D9B07995A4201238A4200DC00235C
:101670001C931098102800DA10200E9B049A9342B5
:1016800000D961E183B2642210936B469B181B88DA
:10169000199300231E93159B002B07D0109B199ABA
:1016A0009B189BB2A3429B415B421E9368226B46F0
:1016B0009B181B881C3A0D936B469B181B881A932A
:1016C000089B002B00D04DE15E4B55331B78012B5E
:1016D00000D13DE3062B00D044E1189A04998A42D8
:1016E00012D30C9A303292B2944200D83AE1062BCF
:1016F0000AD0544A53321378012B05D80133DBB298
:101700001370022B00D032E1514B7E331B78002B3B
:101710000AD14C4B1A7E002A02D1186AFEF734FD1A
:1017200001224B4B7E331A700622464B0D995533DE
:101730001A706B460A9A1B8D8A4201D96B469B8EA2
:101740009BB20A93049A169B934200D328E1119B03
:101750000893179B169A9C463A4B624455331B7864
:1017600092B2012B01D0062B0FD1089B002B0CD17C
:10177000179B04995B08D3189BB2994205D8199B13
:1017800020339BB29C4200D802E1099B14990B4381
:1017900000D108E1089B002B00D007E1049B9A428E
:1017A00005D30C9B10339BB29C4200D8F0E0149BF5
:1017B000002B00D10FE11C9B002B09D1189B049A30
:1017C000934205D3199B10339BB29C4200D8DFE0B3
:1017D0000323049AA40853431C19189BA4B29342F0
:1017E00002D250224F2C06D9B423221C5B009C420B
:1017F00000D91A1C92B2002E00DA5242114B04207A
:1018000019005531087000215433197012230793C1
:101810000A9B934203DB5B42934200DA13000121EF
:10182000002E03DC31004A1E91414942054A140052
:1018300050342170054989688C46002900D06DE13B
:1018400008E0C0462403002000000020B001002072
:10185000A4030020126A1BB209929AB208920122D4
:10186000002B09DC1A00511E8A415242002B03D082
:1018700099B2494289B20891C049C14C09780029FE
:1018800009D00999206B091A00D549E10021BB480C
:101890002E3401702170BA4C21002E31097849B2E2
:1018A000002900D152E1002A00D14FE1914200D13C
:1018B0004CE1FEF78FFF0023A38523000922383374
:1018C0001A70089BB32B00D83DE1099B08332363B2
:1018D000012334342370032302930023019329E16D
:1018E000099933E64A331A78002A00D131E6013AE1
:1018F0002EE6002A00D158E6059A974200D354E616
:101900004E331A888A4200D34FE619804DE614936D
:10191000002B00D16DE6F3179B1BDB0F68E61596D5
:10192000002E00D172E60C9B07995B42012299427E
:1019300000DB0022159269E61C96002E00D198E685
:101940000123079A0D9990E6049B0E99584302F0E3
:1019500027FE0C9A031C80B2904201D26B461B8E6C
:101960009BB290E60022864B099253331A70169B65
:10197000049A934200D2C4E10022824B7E331A7053
:10198000089B934200D012E70C9B9C4200D9E0E6F2
:101990003B002800059A06990096FFF7D3FA96E4D3
:1019A000119B0893F0E7089B002B14D0049B1A9A14
:1019B000DB00D3186A460D999BB2928E994200D9EA
:1019C0001A1C92B2002E00DA524206216C4B55339B
:1019D000197010231BE76B469A8D1E9B002B2AD093
:1019E000049B1D99DB080498E3189BB2814209D33C
:1019F0000C99103189B28C4204D964081B19520821
:101A00009B189BB2B4211A1C49008B4200D90A1CB6
:101A100093B2502B00D25022079B92B2002B00DDD4
:101A20005242574B0420190055310870002154339D
:101A300019700E23EBE61098002E00DA40420F9941
:101A4000002900DC0121079BC21A03235143F2172E
:101A50001A40921992105218129B07994B43D21AAE
:101A6000182818DD0B9BD2180E9B04998B421CD2B0
:101A70000B000B980E998446591A139B4910634426
:101A8000C9180A9B8B4200DD0B00002E08DD9A422C
:101A90000BDA1A0009E01830E6DA0B9BD21AE3E7FA
:101AA000002E02D05B429A42F3DC1599344B002998
:101AB00022D11799049881421ED21F99A1421BD3AB
:101AC0001800543001781D290CD9049B1A9A5B0028
:101AD000D3180A999BB21A1C8B4200D871E76B4647
:101AE0001A8D6EE70131C9B201701E29EDD00221B5
:101AF000553319700C238AE60021543319700E9B5C
:101B000004998B4206D20C23022107931C4B5533B8
:101B100019707DE60D2303210793F7E75B4299E6F1
:101B2000FEF758FE00220923A28538342370063BB5
:101B3000029301923B00059A009628000699FEF751
:101B40003DFDFFF7C4FBFEF745FCC4E60E4AAC3290
:101B5000146880225202944200D350240849A2B251
:101B60002C20095E24B2002910DD002B00DBCDE023
:101B70008A1A131C120413D5002311E05803002005
:101B800024030020A403002000000020002900D12D
:101B9000DBE0002B09DD5218131C12B2002AEBDC2B
:101BA0001BB2BBE0002900DDB8E08B4200DBB5E0F2
:101BB000C81AA04201DD8B1AF2E79CB2002B01DAB1
:101BC0006442A4B26549664A8869844535D00024D8
:101BD0006448D487047005985787908762468A6165
:101BE000614A191C934200DA111CFA220CB29200CD
:101BF000944200DD111C72B65C4A118702213A3210
:101C0000002B00DC0321117062B6554A0121938537
:101C1000002B00DC023914002E3421701100002446
:101C200034310C700221383211704C4A0799928D70
:101C3000019302913B0000967FE74D49096A002914
:101C400007D114004034D1872170578705999187B7
:101C5000C6E7918F059A8A421ED9521A454892B218
:101C6000814206D03C2A04D900213D4AD187403226
:101C700011703B4A3F48518F57878142E6D0059803
:101C8000908704983B2801D9B32C08D8D18F00291C
:101C90002ED00139D1872BE0059A8A1ADEE77A1A0D
:101CA00012B2002E16DD002A18DACA1B12B2002A60
:101CB00016D092B2082A13D82949CA8F4F2A12D9AE
:101CC0000122274B40331A700023039308330293F9
:101CD000043B30E0002E01D0002AEADC002A07D0C5
:101CE00000211F4AD6E7013292B2CA87502AE7D0B4
:101CF0001B4A40321278002AE6D171E7136AFFF7D7
:101D0000F0F9089B002B00D051E522E58B4205DD60
:101D1000581AA04200DC45E7521813B2002B00D03D
:101D20004BE7079B0E2B01D003230793012303935B
:101D3000079B02930923019328003B00059A06990B
:101D40000096FFF797F9FFF7C2FA002BE0DC2CE7CB
:101D5000189A04998A4200D2CBE4C2E40000002021
:101D6000240300206403002018FCFFFFA4030020CC
:101D7000B0010020FFFF000070B5FA260500002426
:101D8000B600FFF7A1F9064B3100D86B02F008FC52
:101D90000134FEF795F9A542F3D1FFF795F970BD2F
:101DA00000000020F7B50024142628270190134DC9
:101DB00021006B68002B03D07821200002F076FC14
:101DC0006B683000002B00D13800A0232022DB05F7
:101DD000814211D29A62FFF777F9FA21084B890004
:101DE000D86B02F0DDFBFEF76BF9019B0134A342D7
:101DF000DDD1FFF769F9F7BD9A61ECE72404002013
:101E000000000020F0B58C4C8BB0230044331B78CD
:101E1000002B13D022002423A16C85321370CB68D1
:101E2000864D2B40CB602100002388310B6013705E
:101E300022008632137022008432137000230C2299
:101E400023656365A3652366636623007C4EE265B4
:101E5000A664E06485331B78DAB20192002B33D19B
:101E6000230001270225802184331A70754BC90194
:101E70005A6BA0203A435A635A6BC0053A40049209
:101E8000049A5A6B2A435A635A6B2A400392039A64
:101E90001A6C0A431A641B6C06950B400293029B52
:101EA000802305A90593783B099307970895FEF7CA
:101EB00047FD04230593019B634805A906950797F1
:101EC00008950993FEF73CFD2300242285331A7000
:101ED000A36C5A49DA6819250A40DA601A69A06DBC
:101EE0000A40616D0A431A61226DD9680243E06DB0
:101EF0000243564801400A43DA605A695448616E09
:101F000002400A435A615A6952480240206E024315
:101F10005A6180231B01994200D071E0FEF7FCFC5E
:101F2000E36C6843590002F03BFB6421070002F0B8
:101F3000BDFBC8003230642102F032FBA36C050007
:101F400064213800019302F02BFB03010720284095
:101F50001B18F8206D00400005405D19019B9D6035
:101F6000A26EA36C002A11D052060FD55A693A48C6
:101F7000E16E02400A435A6180225201914205D12A
:101F80005A6936490A40216F0A435A611A69304931
:101F900020000A4008211A615A6944308A435A6174
:101FA0008022D96892010A43DA60230000212200CE
:101FB0008833196020238532137022008632137013
:101FC00001220270EFF3108072B621706170244C10
:101FD000217280F31088C620F16880000B438021B5
:101FE000F3607369C9051A4372611E4A13581B02D4
:101FF0001B0A0B43135080231B0513600BB0F0BD6D
:10200000FEF78AFCE36C6843990002F0C9FA642188
:10201000050002F04BFB08013230642102F0C0FAE7
:1020200064210190280002F0BBFA019BA76C00011B
:102030001818B86094E7C046A4020020FFDFFFFF35
:10204000003801400010024000040050F3E9FFFF97
:10205000FFF7FFFFFFFCFFFFFFEFFFFFFF9FFFFF0B
:102060002404002000E100E0F8B5050001F0B8FC10
:1020700010270400FEF76EF8002C0BD10C48142238
:1020800003213430FEF790FF0220FFF775FEFEF7C4
:1020900061F8F8BD2600102C00D93E002800FA2275
:1020A000B1B2FEF781FFAD19A41BFFF70DF8E3E70E
:1020B000E048000810B590B012AC24880293019259
:1020C0000300064A00910394302104A801F03EFC6D
:1020D00004A8FFF7C9FF10B010BDC046044A0008AD
:1020E000F0B5D9B05EAC25885FAC268860AC2778A7
:1020F000A024A4460495009100256146619C0293AA
:1021000001920300064A4900079406970596039535
:1021100008A801F01BFC08A8FFF7A6FF59B0F0BD06
:10212000184A00087FB5060014480D00FFF79CFF11
:102130001E20FFF721FE10240021F022080020239A
:1021400000945200FFF7B6FF0023AA2203960C4E1C
:10215000029300960321062001941A335200FFF7E0
:10216000BFFF0223AF200395029300967C22032138
:10217000019418334000FFF7B3FF7FBD3E4A0008CB
:10218000FFFF0000F0B587B005930CAB1D78262348
:102190000E001900C407414317480492E417174A78
:1021A0000440A4186A1E9541154A6D421540DE226E
:1021B0000F001220283100945200FFF77BFF039696
:1021C00000262A371F3539002423E6221A200296DA
:1021D00001940095FFF784FF8F20049B98220393BE
:1021E000059B390000930296242301944000FFF7D9
:1021F00077FF07B0F0BDC04641100000BEEF000001
:10220000E1F700001FB5262343432A330C00C00723
:102210001900084BC0171840074B0092C0180190D6
:1022200000238F2002939822039424334000FFF769
:1022300057FF1FBD41100000BEEF00007FB50E002C
:10224000150000922023A022F0210400FFF732FFA6
:1022500001230293054B02340396019500939C22BF
:102260001623F521A0B2FFF73BFF7FBDFFFF000063
:1022700070B50D00094E1400010032000020FFF778
:10228000DDFF29001022A020FFF7D8FFA020320098
:1022900021004000FFF7D2FF70BDC0460842000099
:1022A00070B514004A6805000E008B688CB0002AD7
:1022B00017D01178002914D0009224210C4A03A8C9
:1022C00001F044FB23005A1E93410A4A5B4213402B
:1022D000280031681F33009403AAFFF753FF0CB0A6
:1022E00070BD2421044A03A801F030FBEAE7C04690
:1022F000484A0008E1F700004F4A0008F8B51E0000
:1023000006AB15001F780024FFF70CFF3A1B534261
:102310005A41200001342900D2B2E4B2FFF7C0FFD5
:10232000A64202D01835052CF0D1034A03490448CF
:10233000FFF79EFFF8BDC046534A0008554A000803
:10234000B24A0008F0B5050087B06148FFF78CFE7F
:102350002C781E2C00D1ACE03DD8012C48D00D2C9F
:1023600000D19CE05B4B5C497B331B78002B00D099
:102370005A4900245A48FFF7D5FE20001F23594A26
:1023800059490094FFF7FEFE584D1F232A000120F3
:1023900057490094FFF7F6FE2A001F2302205549F3
:1023A0000094FFF7EFFEF8232A000320524900941F
:1023B0001B02FFF7E7FEF82304201B024F4A504997
:1023C0000094FFF7DFFE4F4A4F495048FFF750FF98
:1023D000FDF74CFF59E0282C00D172E0462CC1D10A
:1023E0006B784B4A00934B4905234B4834325DE0F0
:1023F0004A494B48FFF796FE002527262B0023402D
:102400005A4253413100474A5B421340464A6943AE
:102410009B18DE22263100931220262389B2520017
:102420000135FFF747FE052DE8D100263F4F38372D
:1024300008CF30002900059302F038F93000CCB203
:10244000290002F0ADF80122E8232721C0B2584349
:102450006143374B144064421C40364B2230E41831
:10246000059B013603930023029200932C3180B226
:1024700001941C33B332F6B2FFF732FE0A2ED7D1E5
:102480002D4A2E492E48FFF7F3FE2E48FFF7ECFDAC
:102490002D48FFF7E9FDFDF75DFE07B0F0BD6B7855
:1024A0002A4A009305232A492A483C32FFF726FF8F
:1024B000EBE76B78284A00932849052328484432E3
:1024C000F4E76B78274A0093274906232748EDE76E
:1024D000664A0008A4030020584A00085F4A000822
:1024E0009E4A0008A94A0008AF4A0008B14A0008FD
:1024F000794A0008B44A0008B64A0008B84A0008F9
:10250000BA4A0008634B0008BC4A0008644A000845
:1025100000010020964A00089A4A00086F4A000805
:10252000734A0008BFEFFFFFFFFF0000E04800080C
:1025300041100000BEEF0000774A0008554A00082D
:102540007B4A0008BF4A0008C84A000880000020F3
:102550007E4A0008824A000800000020864A0008DF
:102560008A4A0008B00100208E4A0008924A0008FA
:10257000F8B505000E4816001C000F00FFF774FDAB
:10258000A64208D0BE4206D2182171430022300074
:102590006918FFF785FEBC4206D21821614301226B
:1025A00020006918FFF77CFE0248FFF75DFDF8BDCB
:1025B000664A0008BF4A000810B5E12486B0FFF75C
:1025C00021FCA4020C48FFF74FFD230018210B4A01
:1025D000684601F0BBF96846FFF746FD2300182165
:1025E000074A684601F0B2F96846FFF73DFD322020
:1025F000FFF7D8FB06B010BDD14A0008D94A000841
:10260000E34A000870478022F0B5D54B1205B5B0FB
:102610009A60BFF34F8FBFF36F8F62B62C220021F9
:1026200029A801F001F90320FEF716F9CD4BCE4C95
:102630001A688023D204D20C1B021343591F38237B
:10264000A268CA4F1A4200D09CE323686268120C49
:10265000130480220B436360396AD200236813425B
:1026600000D188E32368C24A13402360FEF722F9B1
:10267000A368C0491B051B0F9B00CB181F211B6EB5
:10268000BD4A0B40D840D063106CFEF7E5F8002837
:1026900000D075E3B94B1A68E022A168D2010A4361
:1026A000A260A268B6490A40A2602268520500D41E
:1026B00066E30721A268B34D8A43A260386A3131CC
:1026C000A2680A4200D077E301221968114200D0C3
:1026D000ACE3A368AC4A1340A360FEF7EBF8A36831
:1026E000A44A1B051B0F9B00D3181F221B6E13400F
:1026F000D840A14B0290D863186CFEF7ADF8011ECC
:1027000000D03DE30125636B0C222B436363636BB5
:1027100023A82B401693169B01F086F8A020636B2C
:10272000C0052B436363636B21A92B401793179B51
:10273000856121952295FEF703F9FEF79DF93D6A23
:102740003B6A5B1BC72B00D87EE3904D904A2B68F9
:10275000904E934200D07AE36B68B34200D076E3A8
:10276000EB6F28000393FEF74FF8039B834200D0E2
:102770006DE3FA2329895B00994200D267E3AA89B5
:10278000854B9A4200D962E36B89994200D35EE39C
:102790009A4200D85BE32A8AEB89934200D356E33E
:1027A0006B8A9A4200D352E380225201934200D3B3
:1027B0004DE3FA202B8C8000591E89B2814200D350
:1027C00045E3698C994200D941E3744909889942EB
:1027D00000D93CE372490988994200D937E3EB8C70
:1027E0007049643B9BB28B4200D930E36E4B1B882F
:1027F000013B1F2B00D92AE36C4B1B88082B00D907
:1028000025E36B4B1B88934200D320E3694B1B8865
:10281000022B00D91BE38023674A9B0012889A424F
:1028200000D914E3654B1A88654B1B88934200D985
:102830000DE380231B019A4200D908E3614A128804
:102840009A4200D903E3604A12889A4200D9FEE214
:10285000EA8B9A4200D9FAE25C4B1A885C4B1B88DF
:102860009A4200D9F3E25B4B5B4A1B889B185B4A98
:102870009BB2934200D9EAE2FA23594ADB0012885C
:102880009A4200D9E3E2574A1288824200D9DEE236
:10289000B422554B52001B88013B9BB2934200D39C
:1028A000D5E2524B1B88013B9BB2934200D3CEE250
:1028B00080234F4A1B0112889A4200D9C7E24D4A31
:1028C00012889A4200D9C2E2802229004A4800F0C8
:1028D00059FF01250C22002123A800F0A5FF0C229E
:1028E00000211AA800F0A0FF8022636B52032B4343
:1028F0006363636B41492B401593159B236BA020A9
:1029000013432363236BC0050B402363236C21A96E
:1029100013432364236C13401493149B10232193BB
:102920000D3B2293FEF70CF8354A364B1100136429
:102930006C310878A84200D122E20D7098682842D4
:1029400000D0D8E20221156F2F48054029431167B6
:1029500080219D680906294399603D6A56E0C0467A
:1029600000ED00E0100FFF1F0010024024030020C4
:10297000FFC7FFFFE04800080000002000200240E1
:10298000FFF0FFFF88130000FF8FFFFF804F00085C
:102990005056525303008000C4090000DC4F000869
:1029A000E24F0008BC4D0000C84F0008CA4F0008A5
:1029B000CC4F0008D04F0008D24F0008DE4F00086F
:1029C000D84F0008DA4F0008E04F0008E64F000833
:1029D000E44F0008E84F0008F8F8FFFF740E00000D
:1029E000EA4F0008EC4F0008F04F0008F24F0008D3
:1029F000F44F0008F64F000828070020FFFFEFFF04
:102A0000A403002000240140FDFEFFFF9968002977
:102A100000DA60E20221EB4E0425326F75658A43CD
:102A2000326740223100944600226C310A708021C6
:102A300035008905716401215835B4442980654603
:102A4000AA76C225B264F264326672660532B26654
:102A5000326FFF353165F565002A10D18025726728
:102A6000226C6D032A432264226C2A401992199A1F
:102A7000626B0A436263626B11401891189A326F5D
:102A8000D20600D54AE2996804220D00154003954C
:102A9000114200D042E2326F024002201043306700
:102AA0009A68D2070AD41821DA688A438021DA604A
:102AB0001A698905120112090A431A61DA68C249C2
:102AC00007200A40A021DA60DA68C9010A43DA6007
:102AD0005A6982435A610522586902435A61DA6889
:102AE000BA4B1A40B74B8A4200D00BE200220321B6
:102AF00001255A671A6F1AA88A432A431A67802346
:102B00005B011B9304231A93FEF73CF90490002801
:102B100000D035E10C20FEF7B1F9FDF7D7FF3B6A95
:102B2000FEF7CEF98021AA4B09015881049BA02011
:102B30002393636BC0052B436363636B2B40139339
:102B4000139B226C0A432264236C0B401293129B4A
:102B500008232193063B2293249321A90B33259329
:102B6000FDF7EEFE029B9B4A934204D918009A4956
:102B700001F016FD05000022984B9949013D1A60AD
:102B80000120DA609D62D96202215A62986118625E
:102B900058611A61D96018603B0068331A703B00B5
:102BA00069331A70C3228F4D9200AB588E48034090
:102BB000AB508023A0208D3ADB01FF3AAB50C0051B
:102BC0002B60FEF773F8A0200421C005FEF76EF815
:102BD000A0204021C005FEF769F801218348FEF7D7
:102BE00065F8FDF7F7FD72B6FA22814B92009A85DF
:102BF0000022744B9A8762B67E4BD86B784B0C934D
:102C000001239C46734B984203D9734901F0C8FCD9
:102C100084468021226C89020A4322646246236C26
:102C200000240B401193119B734B013A1C60DC6034
:102C30009A621322C520DA62123A5C6280001C613B
:102C4000DA605A611A602B586C49194080231B02C4
:102C50000B432B5080239B032B60396A5C4B21383C
:102C600019603300FF387A331A70FFF79BF896200B
:102C70008001FFF7A1FC96200002FFF79DFCE120F8
:102C80004002FFF799FCE1208002FFF795FCE1206C
:102C90008002FFF7B7F85A4D2800FFF7E5F95020FA
:102CA000FFF780F82800FFF7DFF95648FFF7DCF957
:102CB0005548FFF7D9F9FA20FFF774F8534D28006B
:102CC000FFF7D2F92800FFF7CFF92800FFF7CCF97A
:102CD000230010214E4A21A800F038FE013421A81B
:102CE000FFF7C2F9402CF3D14A48FFF7BDF96C2138
:102CF00032230EAA521813800A310EAACD3352186D
:102D00001370304B44497B331B78002B00D0434970
:102D100077200EABC01800F05BFE29A8FFF712FB6E
:102D200001263F4C256AFDF7F5F9FDF713FA3D4BF7
:102D300059781A78914209D0EFF3108772B6597812
:102D40001A78914200D0F4E087F31088236A9D42FC
:102D5000E9D0FA25A0211E4A2020D38A6D00013334
:102D60009BB2D382C905AB4200D347E1222B00D8E6
:102D700046E1886145E13B6A5B1A022B00D86DE4AD
:102D8000FDF79AFE2368284A1340236080232268B7
:102D90005B00134380222360386AD2002368134209
:102DA00005D06268120C13040B43636072E43B6A43
:102DB0001B1A022BF2D9E3E73A6A121AAA4200D888
:102DC0007EE4DDE7A40300201BC2FEFFE7FF3FC354
:102DD000240400203F420F0040420F00002C01401D
:102DE000FFFF000000E100E0FFFF00FF00040050D3
:102DF000800100200000002000440140FF00FFFF90
:102E0000D14A0008FE4A0008064B00080D4B000896
:102E1000174B0008C84A0008584A00085F4A0008D3
:102E200024030020A4020020FFC7FFFF1968584DAB
:102E300091431960386A1968114200D149E4396A2E
:102E4000091AA942F7D99BE7FDF7D0FA78E4802266
:102E5000504D51499202E9625049514B2963514901
:102E6000AA6169635049514AE96351492B60296459
:102E70005049514B69645149EA61A9648021504A23
:102E8000AB602A624F4B504AEB606A624F4B504A2C
:102E90002B61AA6200236A675222C902E9644D4984
:102EA000280029654C496B6169654C49AB63A9658C
:102EB0004B49AA67E9654B496E6029664A496966CC
:102EC0004A49A9664A49E9664A492967EB67FDF715
:102ED0009BFCE867FDE4396A491B022900D895E5A7
:102EE0001221136F6C328B43190010230B43536074
:102EF0000023137044E72023106F0343136700235C
:102F00000B703DE712211A6F8A43110010220A4309
:102F10001A670122596F0A435A6731E71023326F4B
:102F2000134333672CE7672800D0FAE61672117353
:102F3000F7E63F245A789A1811795A78C8B20132C4
:102F400022405A7087F310882B4A137A002BEAD05C
:102F5000581CC0B2D31810721973082800D8E0E6C4
:102F600000231372137B672B00D0DAE6D37C917CAD
:102F70001940137D0B40FF2B00D0D2E6537C012B70
:102F800000D1AEE1FEF7A0F8FDF730FAC8E6C04682
:102F900088130000280700200800F40104002C0119
:102FA00050565253F4016400C80005000800800127
:102FB00003000500040004008403DC050400030092
:102FC0005203A000340858020300E8030008A70DCC
:102FD0000001000102001000080014001800C000E9
:102FE0003C0078004001780008000300E40CFA007F
:102FF00050001400B400DC00240400200023D3821D
:103000008862FA21C64D8900E86B01F0C9FAFDF724
:1030100057F8236A0E93FEF757F829AB1B78322B2B
:10302000B2D10E9B039A9B1A952BADD91AA8FDF726
:1030300093FABC4B7B331E78002E02D01AA8FDF702
:10304000C7F849221E9B0B930EAB9B1800221B78DE
:103050000992029293420ED01D9A236A03929B1A00
:10306000B14AD28E934206D80EAB188EFDF76EF998
:10307000012309900293002307939E4217D172B651
:10308000AB8E0C9A93420AD0230072331988AA8E11
:10309000914204D31B88AA8E9B1A9BB207930123EB
:1030A0005B42AB862300002272331A8062B6230093
:1030B00049331B78002B00D0C8E19C4B5B890393FC
:1030C000984B78331B880F93954B5A8C00230593AC
:1030D0000C9B9A4207D0964B4C331B889A4202D8DD
:1030E0009B1A9BB20593012300218D4A5B425384B6
:1030F0008F4B17884C3319800C9B9F4201D11AAB20
:103100001F88029D2C1E049514D03800FDF72CF961
:103110000500884B0003401BC018874901F040FAA6
:1031200080235B01984200D38448039B84B2E61A53
:1031300033B204937E4B2C229E5E36229B5E069316
:10314000784B31331B78DBB20A93B3B20D93012372
:103150000893002E0ADC33005A1E93415B42089309
:10316000002E03D0B3B25B429BB20D930B9B002B9E
:1031700027D06B4B1AA9D8884A88B8420AD19888B8
:10318000904207D11C999868814203D11B8C079902
:103190008B4216D0079B2021019300923B00684A86
:1031A00021A800F0D3FB1F2221A90020FFF72AF855
:1031B0005B4B1AAADF8051881C9A99809A60079A03
:1031C0001A84029B564F002B00D142E1FB89AB428F
:1031D00002D1BB89A3420ED023002021594A009579
:1031E00021A800F0B3FB1F22012021A9FFF70AF854
:1031F0004B4BDD819C814A4B03991A8A8A4203D149
:103200009B8C059A934213D0059B20210193039B2D
:103210004B4A009321A80F9B00F098FB1F2202202D
:1032200021A9FEF7EFFF3E4B039A1A82059A9A8472
:103230003B4C1223E25E029B002B00D119E13C4B78
:1032400004994E331B888A4202D1E28C9A4216D0EE
:1032500020213D4A009321A8049B00F077FB049BAA
:103260000320DA17394B21A91A401F32FEF7CAFF93
:103270002B4A049B53822E4B4E331B88D384162239
:10328000274B08999A568A4202D0314A99759A82F8
:10329000029B002B00D107E1254B38331C78099B9A
:1032A000012B00D0F4E0FB22231F134200D002E1E7
:1032B0001B4BDA7DA24200D056E114215A5EB24285
:1032C00000D051E128215A5E06998A4200D04BE194
:1032D0002A331B780A9A934200D045E10E9B039350
:1032E00052E6937B507B1B0203435BBA99B2107C7E
:1032F0000291D17B29AC00020843A188E3802378A6
:1033000040BA013182B2A1802081322B37D1E72A25
:1033100000D837E6029B9F2B1CD80123237026E0A0
:1033200000000020A403002028070020240400201F
:103330002403002072060000E40C0000FF0F0000D0
:10334000204B0008234B0008294B0008E1F7000040
:10335000FF7F0000A023029A5B009A420DD28C4BA3
:103360007B331A7851424A411A70FCF77FFF0023E1
:1033700063702000FEF7E6FF04E62823CEE7012B6A
:103380002BD13133E72A55D81300203BC72B00D966
:10339000F8E5282A00D2282080B22721283801F019
:1033A000FFF8029A0023EF2A00D90523C01840B283
:1033B0000138062800D9E5E501F0E8F80700E4FD4A
:1033C0000900DFFF0B00E4FD0D000D23A6E71E231F
:1033D000A4E73223A2E74623A0E7282B00D1A1E0EF
:1033E00009D80D2B00D1B9E01E2B00D0CAE5694DDC
:1033F0000526443598E0462B00D0C3E5664D0526EA
:10340000343591E0029B9F2B0DD801235B423A009B
:1034100031002800FCF7CAFE3A003100280063782A
:10342000FFF7A6F8AEE5A023029A5B009A4203D20A
:10343000403BFF3B23809CE70123E8E7A023029960
:103440005B009942E8D9403BFF3BE1E70434E38F5E
:1034500035E6BA89514B9A4200D1CCE6F8220120D8
:103460004F491202FEF7CEFE02235B42BB81FB8175
:10347000C1E64C4DAA4200D101E7F8220320484999
:103480001202FEF7BFFE01235B426582E384F6E68B
:10349000099B022B00D00BE7042C00D108E7082C75
:1034A00000D105E7062403E70B9B03245A1E934132
:1034B0005B421C40FCE60524FAE60A9A3A4B102AC5
:1034C00004D0089A394B012A00D0394B069A2021A2
:1034D00001920D9A21A80092364A00F037FA1F2275
:1034E000022C01D0F8221202042021A9FEF78AFE44
:1034F000284B069ADC751A850A9A9E822A331A701E
:10350000ECE60B9A2C4B002A00D12C4B069A20217A
:10351000009221A82A4A00F019FAE3E7294BD5E7DF
:10352000294BF3E70626294D6778E72A00D969E792
:103530001300223BC52B00D924E52A2A00D22A20D9
:1035400080B226212A3801F02BF8029BC2B26270A9
:103550009F2B00D972E701235B4259E71C4D0526DA
:103560003C35E1E71B4BD1E7601E0828C9D801F0C4
:1035700003F8F9A40D0BD5070905D700164BC5E7CD
:10358000164BA3E7164BC1E7164BBFE7164BBDE73B
:10359000A40300200000002000010020FEFF000026
:1035A000B14A0008FE7F0000EF4A0008534A0008B5
:1035B000B24A00082F4B0008F64A0008BD4A00082E
:1035C000374B0008EC4A0008F44A0008B00100201C
:1035D00080000020BA4A0008FB4A0008F14A0008AF
:1035E000904A0008B44A0008F94A0008704710B52C
:1035F000FDF762FA70477047024A136A013313629B
:103600007047C046240300200822044B10B5D96837
:10361000114202D0DA60FCF7FBFE10BD0018024038
:10362000704710B5FCF7F4FE10BD0121244B70B5B6
:103630001A690A423FD01A698A431A61214B1A005B
:103640003A321C8F11789A8F24B2143292B29A8730
:103650001D4AC9B2908D9D8F82B2A84201D8002028
:1036600098871A4D002901D0002C0AD1A0230222EC
:10367000DB059A6292189A6240229A620123AB6239
:1036800019E0A0B2002C01DA404280B2FA21504386
:1036900089009E8F00F084FFA023B6B20222DB05D2
:1036A000B042E6D90421002C06DD9A6240229962DC
:1036B0009A610123AB6170BD9A619961DCE7C046F4
:1036C00000440140A40300208001002000040050B9
:1036D0002F220C4B70B51D68154211D05C68AB06EB
:1036E00008D5E4B22000FCF701FD074B1C765A68B0
:1036F00001325A602B0703D0044AD3680133D360E8
:1037000070BDC0460038014024040020240300207E
:103710000849094B4A681B68120CDB041204DB0CD5
:10372000134380229201134380224B60034B120506
:103730009A60704700100240040FFF1F00ED00E088
:1037400070B50C4D0C4E761BB61005D0002408CD7C
:1037500001349847A642FAD1FEF754FF074D084EB0
:10376000761BB61005D0002408CD01349847A64238
:10377000FAD170BDF44B0008F44B0008F44B00087C
:10378000F44B0008F0B5C64600B50F2A41D903270F
:103790000D003E0005430C0003002E402F423DD19A
:1037A0001500103D2D09A8462D01AC46844427681C
:1037B0001D001F6067685F60A7689F60E76810343E
:1037C000DF6010336545F2D145460F230C240135E7
:1037D0002D01491913404519144222D08C59AC517E
:1037E00004369C1B032CF9D8043B9B0801339B0037
:1037F000ED18C91803231A40561E002A06D00023CC
:10380000CC5C1A00EC5401339642F9D180BCB84626
:10381000F0BD0500561E002AF1D1F7E70500561E3F
:10382000EDE71A00F6E7C046F0B50500830749D07A
:10383000541E002A45D003000326CAB202E0013517
:10384000013C3ED301332A703342F8D1032C30D9E6
:10385000FF220A40150215432A0415430F2C34D9C0
:103860002700103F3F093E01B4461E001A001036E3
:103870006644156055609560D5601032B242F8D14B
:1038800001373F01DB190F270C22274022403C0063
:10389000002A0ED03E1FB608B400A4461A001C1D14
:1038A000644420C2A242FCD103240136B6009B1915
:1038B0003C40002C05D0C9B21C19197001339C4240
:1038C000FBD1F0BD03001400C0E72700E2E7C046CB
:1038D00008B410B504009DB0002A31DB822368468D
:1038E0009B00838202910691002A14D00123013AA1
:1038F0005B42C382049220AB079220001F9A02A968
:10390000019300F091F9431C01DA8B23236000231B
:10391000029A13700FE001235B42C382049220AB32
:10392000079220001F9A02A9019300F07DF9431C21
:1039300001DA8B2323601DB010BC08BC01B018470E
:103940008B23036001204042F5E7C0460CB410B55C
:103950001E4B9CB01C68002932DB82236A469B0008
:10396000938202900690002914D0012301395B4212
:10397000D38204911FAB079120001E9A02A90193E4
:1039800000F052F9431C01DA8B2323600023029AD2
:10399000137010E001236A465B42D38204911FAB8F
:1039A000079120001E9A02A9019300F03DF9431CE3
:1039B00001DA8B2323601CB010BC08BC02B018478E
:1039C0008B23012023604042F5E7C04640020020DF
:1039D00003000A7801311A700133002AF9D17047C7
:1039E00010B583070AD00300032102E001330B4224
:1039F00005D01A78002AF9D1181A10BD03001968E9
:103A00000C4A0D4C8A188A4322420FD15968094A40
:103A100004338A188A43224208D15968054A04337C
:103A20008A188A432242F1D000E001331A78002A32
:103A3000FBD1E1E7FFFEFEFE80808080F0B5D64638
:103A40004F464646C0B58F6882460C0016001D00E2
:103A50009F423BD890228B89D200134212D13D0065
:103A600008682A00310000F019FCA3680020DF1B61
:103A70002368A7609C4665442560E0BCBA46B14611
:103A8000A846F0BD096922686069521A9146420051
:103A90001218D00F8218681C521048449046904269
:103AA00001D9804602005B0513D51100504600F095
:103AB000ABFC071E21D04A462169FFF763FEA389AC
:103AC000134A134080221343A38107E01F000868B4
:103AD000C7E7504600F0FAFC071E0AD038004346FC
:103AE0004A46484463619B1A276120602F00A36007
:103AF000B7E75046216900F027FC0C2352461360BB
:103B000040220120A38940421343A381B5E7C04668
:103B10007FFBFFFFF0B54E464546DE465746E0B513
:103B2000936883B00D0091460190002B6AD017680E
:103B300008688C6843E09022AB89D20013422ED0F3
:103B40002969421A9346686942001218D00F8218F8
:103B5000701C521058449046904201D98046020091
:103B60008020C000034236D01100019800F04CFCC8
:103B7000041E52D05A462969FFF704FEAB89294A30
:103B8000134080221343AB81434620005A462C61E8
:103B9000B046340058446B619B1A2860AB604246C3
:103BA000514600F07BFBAB6828681C1B4B469B68AA
:103BB00040449E1B4B46AC6028609E6022D03B6810
:103BC0007E689A460837002EF9D0A046B442B2D992
:103BD0003400B046E3E7019800F078FC041ED3D12E
:103BE000019C2969200000F0AFFB0C2323604022D8
:103BF000AB8901201343AB814A46002340429360C6
:103C0000536003E000234A460020536003B0F0BC39
:103C1000BB46B246A946A046F0BD0C23019A1360EC
:103C2000E5E7C0467FFBFFFFF0B5DE465746454659
:103C30004E46E0B51C008B8982468B4690469DB06F
:103C40001B0603D50B69002B00D1EDE0002304AD6A
:103C50006B6120336B761033AB7643461B787C4E1A
:103C60000394002B74D0444604E063780134002BA5
:103C700000D17AE0252BF8D14346E71A444500D01D
:103C800077E02378002B63D00122002352426A6040
:103C90004432671C2B60EB60AB60AB54AB6506E055
:103CA0000123801B83402A68013713432B600522C0
:103CB0003000397800F0B8FA0028F1D12B68DA0624
:103CC00002D543222021A9541A0702D543222B21D1
:103CD000A95439782A2958D1039A111D12680391E1
:103CE000002A00DA7CE0EA6079787C1C2E295FD01B
:103CF000584B03221800984600F096FA002807D087
:103D00004346C01A402383402A68013413432B6082
:103D10002178631C062250489846297600F084FAE0
:103D2000002863D04D4B002B53D003AB00935A4671
:103D3000290050464A4B00E000BF81464B46013304
:103D400006D06B694B446B6143461B78002B8AD1CC
:103D50005B469B895B0600D572E068691DB0F0BCCC
:103D6000BB46B246A946A046F0BD4346E71A4445C5
:103D7000EED03B00424659465046FFF75FFE431CDB
:103D8000E6D06B69DB196B617BE7080030380928E6
:103D90000BD8EB689A00D31879785B001B180800E1
:103DA000303801370928F5D9EB603C002E299FD126
:103DB00061782A2924D1039BA01C1A1D1B68039239
:103DC0006B60002B02DA01235B426B60A178040078
:103DD0008EE70722039B0733934308330393B0E72F
:103DE0005242EA60022213432B607DE703AB00934B
:103DF0005A46290050461A4B00F0D2F881469DE7FA
:103E000008000023303801346B60092800D96FE7BF
:103E10009A00D31861785B001B1808003038013411
:103E20000928F5D96B6063E7402100F0EDFA5B46A5
:103E300018601861002806D040235A46536105E7F0
:103E4000012040428AE70C2352460138136085E77F
:103E5000B84B0008C04B0008C44B0008000000002D
:103E60003D3A0008F8B557464E46DE464546E0B5B1
:103E70001F000A9B924699460A698B6806000C004F
:103E80009A4200DA1A0053461A604323E35C002B7F
:103E900002D0514601320A6021688A065ED5534637
:103EA000524606201B680233136021680A0008424C
:103EB00009D1E268D31A192293460022A3449046FE
:103EC0000A00002B42DC4323E35C591E8B4192061F
:103ED0000AD53020E1184331087045215A1C615C35
:103EE000A2184332023311702200390030004332ED
:103EF000C847431C19D0062322681340042B33D033
:103F0000A368226993423DDD002188469B1A9844AC
:103F100000251A3402E00135454533DA0123220039
:103F200039003000C847431CF5D101204042F0BCA5
:103F3000BB46B246A946A046F8BD01239C4653465F
:103F4000E2681B68E044D51A454520DD01235A4646
:103F500039003000C847431CEFD1E6E706220A4289
:103F600012D05A1E9341BFE753461968E36822698D
:103F7000591ACB43DB170B409846A3689342C5DC24
:103F80000029C5DC0020D2E753461B6891E7432394
:103F90002268E35C591E8B4192069AD4A4E7C0467E
:103FA000F0B54E46994643239C4657464546DE4665
:103FB0008C446346E0B587B003930C00097E9046BD
:103FC0000700109A002914D00B00583BDBB2202BBD
:103FD0004BD892489B00C3589F462368190602D4C9
:103FE0005B0600D501E11368191D11601B68626949
:103FF0001A600023039D23614B4621000093380083
:10400000434605AAFFF72EFF431C1FD023692A0051
:1040100041463800C847431C18D023689B071ED56B
:10402000E36805981A1A002A1BDD260000251936B8
:1040300005E0E368059801351A1AAA4211DD01234B
:10404000320041463800C847431CF2D101204042AB
:1040500007B0F0BCBB46B246A946A046F0BDE36837
:1040600005989842F4DA1800F2E742232500E1545B
:10407000413B4235236143230022E254BCE72368DD
:10408000190602D4590600D5BBE01168081D10605E
:104090000A681600002A75DB614B9B460A239A4684
:1040A0004DE02368180602D45B0600D5A4E013682F
:1040B000181D10601E685A4B9B466F2900D1A7E05F
:1040C0000A239A4638E013682500191D11601A6802
:1040D0004223E254413B42352361CCE71368191D6A
:1040E00011601D6800212800626800F09DF800281A
:1040F00000D190E0401B60602061BCE72023216874
:104100000B43236045217820605446498B461906AD
:1041100031D459062FD51168081D0E881060DA07B2
:1041200002D520221343236010239A46002E03D188
:10413000226810339A43226043230022E2546368CA
:10414000A360002B48DB0422216891432160002EEC
:1041500027D1002B42D1039D5346082B31D0039B1E
:104160005B1B236148E745235821E15423682C4910
:104170008B461906CDD51168081D10600E68CEE774
:104180002368BFE743222D21A15462687642A260D2
:10419000002A02DB042293432360214B9B460A231F
:1041A0009A46039D3000514600F080FA5B465B5C06
:1041B000013D2B70330006005345F3D25346082BC4
:1041C000CDD12368DB07CAD5636822699342C6DC78
:1041D0003023013D2B70C2E7002EE2D15B46250063
:1041E0001A7842234235E254B6E713686169181D14
:1041F00010601B681980FCE61368181D1E8810608B
:1042000059E71168081D106000228E5E320041E7F8
:1042100008239A4690E7606820612CE780490008EF
:10422000CC4B0008E04B000870B5CCB283070DD032
:10423000531E002A0FD0032504E00130284206D087
:10424000013B08D30278A242F7D170BD1300032BC3
:104250000CD8002B01D10020F7E7C31802E0013091
:104260008342F8D00278A242F9D1EEE7FF25294037
:104270000D0229430D04074E0D43026806496A40AA
:10428000511891433142E8D1043B0430032BF4D858
:10429000DFE7C04680808080FFFEFEFEF0B58842EA
:1042A0000AD98B18984207D2531E002A03D0CA5C41
:1042B000C254013BFBD2F0BD0F2A0BD80500561E9D
:1042C000002AF8D00023CC5C1A00EC54013396424B
:1042D000F9D1F0E703270D003E0005430C00030071
:1042E0002E402F422BD11500103D2D09AC462F0139
:1042F0003F1825681D6065685D60A5689D60E5687C
:104300001034DD601D001033BD42F2D165460F232D
:104310000C2401352D01491913404519144211D0BF
:104320008C59AC5104369C1B032CF9D8043B9B08D8
:1043300001339B00ED18C91803231A40BFE705009D
:10434000561EBFE71A00BAE770B50500002915D060
:104350000C1F2368002B23DB280000F0F1F8294A0A
:104360001368002B05D0A3420BD921686018834243
:104370002DD063602800146000F0E4F870BDA34203
:1043800010D81A005B68002BF9D1106811188C4204
:1043900019D030D363605460280000F0D3F8EDE703
:1043A000E418D9E711685018A04217D023D8216823
:1043B00060188342EED118685B68844661442160CE
:1043C00063605460E8E7236818181060E4E7186831
:1043D0005B688446614421606360CBE7206809180C
:1043E000501811608342D7D118685B6884466144D5
:1043F00011605360D0E70C2328002B6000F0A2F876
:10440000BCE7C046A8070020F8B50323CD1C9D4398
:10441000083506000C2D27D20C25A94226D83000DD
:1044200000F08EF8284F3A68002A27D0140004E0E4
:1044300063682200002B21D01C0023685B1BF7D48B
:104440000B2B17D86368944235D05360300000F0CE
:1044500079F8200007220B30231D9043C21A98429E
:1044600007D01B1AA35004E0002DD6DA0C2300203D
:104470003360F8BD2360E4182560E7E77B68002B14
:104480001BD02900300000F049F8431C0CD0032356
:10449000C41C9C43A04205D0211A300000F03EF815
:1044A000431C01D02560D1E70C233000336000F0BD
:1044B00049F80020DDE73B60C8E70021300000F04C
:1044C0002DF87860DDE7C046A8070020F8B50600A3
:1044D0000C00150000291BD0002A15D000F034F87C
:1044E0002700A84201D33800F8BD29003000FFF7AB
:1044F0008BFF071EF7D021002A00FFF743F92100A8
:104500003000FFF721FFEEE7FFF71EFF0027EAE785
:104510001100FFF779FF0700E5E7C046002370B5FB
:10452000064D040008002B6000F018F8431C00D072
:1045300070BD2B68002BFBD02360F9E7B00700208B
:104540007047C0467047C0460B1F1B68181F002BE2
:1045500000DB70470B58C018FBE7C046044A030055
:104560001068002802D0C318136070470148FAE7AA
:10457000B4070020B807002002B47146490849007A
:10458000095649008E4402BC7047C04603B47146C8
:10459000490840004900095E49008E4403BC704749
:1045A000002243088B4274D303098B425FD3030A72
:1045B0008B4244D3030B8B4228D3030C8B420DD385
:1045C000FF22090212BA030C8B4202D31212090213
:1045D00065D0030B8B4219D300E0090AC30B8B4251
:1045E00001D3CB03C01A5241830B8B4201D38B03FF
:1045F000C01A5241430B8B4201D34B03C01A5241A4
:10460000030B8B4201D30B03C01A5241C30A8B42E6
:1046100001D3CB02C01A5241830A8B4201D38B02D1
:10462000C01A5241430A8B4201D34B02C01A524175
:10463000030A8B4201D30B02C01A5241CDD2C309E7
:104640008B4201D3CB01C01A524183098B4201D363
:104650008B01C01A524143098B4201D34B01C01A4E
:10466000524103098B4201D30B01C01A5241C308C6
:104670008B4201D3CB00C01A524183088B4201D335
:104680008B00C01A524143088B4201D34B00C01A21
:104690005241411A00D20146524110467047FFE78D
:1046A00001B5002000F0F0F802BDC0460029F7D0A7
:1046B00076E7704703460B437FD4002243088B42C2
:1046C00074D303098B425FD3030A8B4244D3030B99
:1046D0008B4228D3030C8B420DD3FF22090212BA5E
:1046E000030C8B4202D31212090265D0030B8B42DA
:1046F00019D300E0090AC30B8B4201D3CB03C01AC4
:104700005241830B8B4201D38B03C01A5241430B9E
:104710008B4201D34B03C01A5241030B8B4201D38E
:104720000B03C01A5241C30A8B4201D3CB02C01AF9
:104730005241830A8B4201D38B02C01A5241430A71
:104740008B4201D34B02C01A5241030A8B4201D360
:104750000B02C01A5241CDD2C3098B4201D3CB0107
:10476000C01A524183098B4201D38B01C01A5241B6
:1047700043098B4201D34B01C01A524103098B42BA
:1047800001D30B01C01A5241C3088B4201D3CB00A5
:10479000C01A524183088B4201D38B00C01A524188
:1047A00043088B4201D34B00C01A5241411A00D238
:1047B00001465241104670475DE0CA0F00D04942A1
:1047C000031000D34042534000229C4603098B4211
:1047D0002DD3030A8B4212D3FC22890112BA030A99
:1047E0008B420CD3890192118B4208D3890192111B
:1047F0008B4204D389013AD0921100E08909C309A0
:104800008B4201D3CB01C01A524183098B4201D3A1
:104810008B01C01A524143098B4201D34B01C01A8C
:10482000524103098B4201D30B01C01A5241C30804
:104830008B4201D3CB00C01A524183088B4201D373
:104840008B00C01A5241D9D243088B4201D34B008E
:10485000C01A5241411A00D20146634652415B10D0
:10486000104601D34042002B00D5494270476346B1
:104870005B1000D3404201B5002000F005F802BDF6
:104880000029F8D016E770477047C0460D488546A6
:10489000FEF73EFF0C480D490D4A002302E0D458B4
:1048A000C4500433C4188C42F9D30A4A0A4C00237A
:1048B00001E013600432A242FBD3FEF741FFFDF793
:1048C000A2FEFEE7000C002000000020A402002051
:1048D000F44B0008A4020020B8070020FEE7000007
:1048E00000093D0000127A000024F40040865101C6
:1048F00000366E0100000000000000000000000013
:1049000000000000010000000200000003000000A1
:1049100004000000FFFFFF003D4B0008824A000832
:10492000414B00088A4A0008924A0008454B00089B
:10493000494B00089A4A00084D4B0008514B0008AB
:104940000000000000000000000000000000000067
:104950000000000000000000000000000000000057
:10496000010000000200000003000000040000003D
:104970000600000007000000080000000900000019
:10498000664100086A4000086A4000086A40000862
:104990006A4000086A4000086A4000086A4000084F
:1049A0006A4000086A4000086A400008C6400008E3
:1049B0007E4000086A4000086A4000086A4000081B
:1049C0006A4000087E4000086A4000086A4000080B
:1049D0006A4000086A400008DA3F0008A240000868
:1049E000FC4000086A4000086A400008DC400008FB
:1049F0006A400008A24000086A4000086A400008B7
:104A00008041000866696C6C2025752C25752C2565
:104A1000752C25752C257500787374722025752CDE
:104A200025752C25752C25752C25752C25752C2583
:104A3000752C25752C312C312C2225732200636CAA
:104A40007320363535333500256C642025730025F9
:104A50006C64002B00424B0045585450574D0049A0
:104A60004E5450574D007265665F73746F700053FB
:104A7000454C0050303100454E54004D4E004252DE
:104A80004B005033310054554E00503330004842F3
:104A9000520050343000484C4400503730005035FC
:104AA000302056372E313068002D2D207573005080
:104AB000002D2D004100450057004800494E00726E
:104AC00065665F737461720073656E6478793D31F9
:104AD00000626B636D643D300062617564733D25F7
:104AE0006C7500626175643D256C75004C4F005318
:104AF0000048490042005354005800414400646992
:104B00006D3D31303000706167652030007473771F
:104B1000203235352C30007473772025752C300009
:104B2000257520257520257500256420257500250F
:104B300073257520256400257320256400503130CD
:104B40000050323000503530005036300050383090
:104B5000005039300048626400636E740048766526
:104B60006C0071340052656C004C6D696E004C6DC8
:104B7000617800426D696E00426700426D617800A5
:104B800042760042686400566D61780041636300BC
:104B90004646004B7600536C657700496E760044BC
:104BA000697200487A004D61780053746100537453
:104BB0006D006D7300000000232D302B20000000DD
:104BC000686C4C00656667454647000030313233FB
:104BD00034353637383941424344454600000000F9
:104BE0003031323334353637383961626364656663
:044BF00000000000C1
:104BF400FFFFDC05FFFFFFFFFFFFFFFFFFFFFFFFDE
:104C0400FFFFFF7FFF7F7FFFFFFFFFFFFFFFDC054D
:104C1400FFFFFFFFFFFFFFFFFF7FFF000808DC052A
:104C2400DC05DC05FFFFFFFFFF00000000127A0037
:104C340004000000874B0008624B0008A00100003C
:104C44007800000020030000080000008C4B0008DE
:104C5400624B0008240000000800000078000000F7
:104C640002000000904B00083D4A00087800000054
:104C7400000000009001000005000000934B0008B4
:104C84003D4A000803000000010000000A00000083
:104C940001000000964B00083D4A00085000000047
:104CA40014000000F000000005000000734B000831
:104CB400594B0008A0000000000000002C01000077
:104CC40004000000784B00083D4A0008030000007F
:104CD400000000000A000000010000007B4B0008F7
:104CE400594B00086C02000028000000BC020000C0
:104CF4000A000000804B0008624B000820000000FE
:104D040000000000A000000004000000834B000825
:104D1400624B00084400000000000000C8000000CE
:104D240004000000554B0008594B00081000000017
:104D34000600000050000000010000005D4B000868
:104D4400624B00081C000000000000007800000016
:104D540002000000654B0008594B000810000000D9
:104D640006000000A000000001000000694B0008DC
:104D74003D4A0008E000000000000000200300009D
:104D84000A0000006E4B00083D4A0008A203000020
:104D940064000000E80300000A000000E8030000CB
:104DA4009B4B00083D4A0008000000000000000082
:104DB40001000000010000009F4B00083D4A00086C
:104DC40001000000000000000100000001000000DC
:104DD400A34B0008A34B0008E80300004A010000AD
:104DE400E80300009E020000A64B00083D4A0008AC
:104DF400E803000000000000E803000005000000D4
:104E0400AA4B00083D4A0008E80300000000000027
:104E1400E803000005000000AE4B0008B24B000898
:104E24005802000000000000B80B00000A00000057
:104E34004402002000000000000000000000000008
:104E4400000000000000000000000000000000005E
:104E5400000000000000000000000000000000004E
:104E6400000000000000000000000000000000003E
:104E7400000000000000000000000000000000002E
:104E8400000000000000000000000000000000001E
:044E9400000000001A
:040000050800488D1A
:00000001FF
